{"contracts/airdrop.sol":{"ERC20Airdrop":{"abi":[{"anonymous":false,"inputs":[{"indexed":true,"internalType":"address","name":"tokenAddress","type":"address"},{"indexed":true,"internalType":"address","name":"sender","type":"address"},{"indexed":true,"internalType":"address[]","name":"recipients","type":"address[]"},{"indexed":false,"internalType":"uint256","name":"amount","type":"uint256"}],"name":"AirdropCreated","type":"event"},{"inputs":[{"internalType":"address","name":"tokenAddress","type":"address"},{"internalType":"address[]","name":"recipients","type":"address[]"},{"internalType":"uint256","name":"amount","type":"uint256"}],"name":"createAirdrop","outputs":[],"stateMutability":"nonpayable","type":"function"},{"inputs":[{"internalType":"address","name":"tokenAddress","type":"address"}],"name":"withdraw","outputs":[],"stateMutability":"nonpayable","type":"function"}],"evm":{"bytecode":{"linkReferences":{},"object":"6080806040523461001657610612908161001c8239f35b600080fdfe60806040526004361015610013575b600080fd5b6000803560e01c9081633ddd92d01461003e57506351cff8d91461003657600080fd5b61000e61016d565b346100fa5760603660031901126100fa576100576100fd565b67ffffffffffffffff91906024358381116100f657366023820112156100f65780600401359384116100e9575b8360051b906040519160209561009c8783018561013e565b8352602486840191830101913683116100e557602401905b8282106100ce57856100c960443586886103f0565b604051f35b8680916100da84610113565b8152019101906100b4565b8580fd5b6100f1610127565b610084565b8280fd5b80fd5b600435906001600160a01b038216820361000e57565b35906001600160a01b038216820361000e57565b50634e487b7160e01b600052604160045260246000fd5b90601f8019910116810190811067ffffffffffffffff82111761016057604052565b610168610127565b604052565b503461000e5760208060031936011261000e576000816101ee6001600160a01b036101966100fd565b6040516370a0823160e01b81523060048201529116908381602481855afa908115610261575b8591610234575b5060405163a9059cbb60e01b8152336004820152602481019190915293849283919082906044820190565b03925af18015610227575b6101ff57005b8161021e92903d10610220575b610216818361013e565b81019061030b565b005b503d61020c565b61022f6102b3565b6101f9565b6102549150843d861161025a575b61024c818361013e565b8101906102a4565b386101c3565b503d610242565b6102696102b3565b6101bc565b50634e487b7160e01b600052601160045260246000fd5b8060001904821181151516610298570290565b6102a061026e565b0290565b9081602091031261000e575190565b506040513d6000823e3d90fd5b156102c757565b606460405162461bcd60e51b815260206004820152602060248201527f496e73756666696369656e742062616c616e636520666f722061697264726f706044820152fd5b9081602091031261000e5751801515810361000e5790565b6001906000198114610333570190565b61033b61026e565b0190565b80518210156103535760209160051b010190565b634e487b7160e01b600052603260045260246000fd5b1561037057565b60405162461bcd60e51b8152602060048201526015602482015274151bdad95b881d1c985b9cd9995c8819985a5b1959605a1b6044820152606490fd5b60405190818183925160208092019160005b8281106103d0575050505003902090565b83516001600160a01b0316855286955093810193928101926001016103bf565b9291909260018060a01b0316610407828551610285565b604080516370a0823160e01b815233600480830191909152602097929390929161047b91899161045390829084816024818d5afa9081156105cf575b6000916105b2575b5010156102c0565b855163095ea7b360e01b81523086820190815260208101929092529283918291604090910190565b03816000895af180156105a5575b610588575b5060005b815181101561054b57806105176104fa8a896104c16104b461051c978961033f565b516001600160a01b031690565b89516323b872dd60e01b8152338a82019081526001600160a01b0390921660208301526040820192909252909283918291606090910190565b038160008c5af190811561053e575b600091610521575b50610369565b610323565b610492565b61053891508b3d8d1161022057610216818361013e565b38610511565b6105466102b3565b610509565b507f5aca639021ac708a0e24a618ec97ce2db15cb8b1f3e29067be73a49f5f3a2f3b9295965061057b91506103ad565b93519283523392602090a4565b61059e90883d8a1161022057610216818361013e565b503861048e565b6105ad6102b3565b610489565b6105c99150853d871161025a5761024c818361013e565b3861044b565b6105d76102b3565b61044356fea2646970667358221220333e7442a9a21dd12bacb218ea04df56fafe9b4e55128111d6664f8bec94257364736f6c634300080d0033","opcodes":"PUSH1 0x80 DUP1 PUSH1 0x40 MSTORE CALLVALUE PUSH2 0x16 JUMPI PUSH2 0x612 SWAP1 DUP2 PUSH2 0x1C DUP3 CODECOPY RETURN JUMPDEST PUSH1 0x0 DUP1 REVERT INVALID PUSH1 0x80 PUSH1 0x40 MSTORE PUSH1 0x4 CALLDATASIZE LT ISZERO PUSH2 0x13 JUMPI JUMPDEST PUSH1 0x0 DUP1 REVERT JUMPDEST PUSH1 0x0 DUP1 CALLDATALOAD PUSH1 0xE0 SHR SWAP1 DUP2 PUSH4 0x3DDD92D0 EQ PUSH2 0x3E JUMPI POP PUSH4 0x51CFF8D9 EQ PUSH2 0x36 JUMPI PUSH1 0x0 DUP1 REVERT JUMPDEST PUSH2 0xE PUSH2 0x16D JUMP JUMPDEST CALLVALUE PUSH2 0xFA JUMPI PUSH1 0x60 CALLDATASIZE PUSH1 0x3 NOT ADD SLT PUSH2 0xFA JUMPI PUSH2 0x57 PUSH2 0xFD JUMP JUMPDEST PUSH8 0xFFFFFFFFFFFFFFFF SWAP2 SWAP1 PUSH1 0x24 CALLDATALOAD DUP4 DUP2 GT PUSH2 0xF6 JUMPI CALLDATASIZE PUSH1 0x23 DUP3 ADD SLT ISZERO PUSH2 0xF6 JUMPI DUP1 PUSH1 0x4 ADD CALLDATALOAD SWAP4 DUP5 GT PUSH2 0xE9 JUMPI JUMPDEST DUP4 PUSH1 0x5 SHL SWAP1 PUSH1 0x40 MLOAD SWAP2 PUSH1 0x20 SWAP6 PUSH2 0x9C DUP8 DUP4 ADD DUP6 PUSH2 0x13E JUMP JUMPDEST DUP4 MSTORE PUSH1 0x24 DUP7 DUP5 ADD SWAP2 DUP4 ADD ADD SWAP2 CALLDATASIZE DUP4 GT PUSH2 0xE5 JUMPI PUSH1 0x24 ADD SWAP1 JUMPDEST DUP3 DUP3 LT PUSH2 0xCE JUMPI DUP6 PUSH2 0xC9 PUSH1 0x44 CALLDATALOAD DUP7 DUP9 PUSH2 0x3F0 JUMP JUMPDEST PUSH1 0x40 MLOAD RETURN JUMPDEST DUP7 DUP1 SWAP2 PUSH2 0xDA DUP5 PUSH2 0x113 JUMP JUMPDEST DUP2 MSTORE ADD SWAP2 ADD SWAP1 PUSH2 0xB4 JUMP JUMPDEST DUP6 DUP1 REVERT JUMPDEST PUSH2 0xF1 PUSH2 0x127 JUMP JUMPDEST PUSH2 0x84 JUMP JUMPDEST DUP3 DUP1 REVERT JUMPDEST DUP1 REVERT JUMPDEST PUSH1 0x4 CALLDATALOAD SWAP1 PUSH1 0x1 PUSH1 0x1 PUSH1 0xA0 SHL SUB DUP3 AND DUP3 SUB PUSH2 0xE JUMPI JUMP JUMPDEST CALLDATALOAD SWAP1 PUSH1 0x1 PUSH1 0x1 PUSH1 0xA0 SHL SUB DUP3 AND DUP3 SUB PUSH2 0xE JUMPI JUMP JUMPDEST POP PUSH4 0x4E487B71 PUSH1 0xE0 SHL PUSH1 0x0 MSTORE PUSH1 0x41 PUSH1 0x4 MSTORE PUSH1 0x24 PUSH1 0x0 REVERT JUMPDEST SWAP1 PUSH1 0x1F DUP1 NOT SWAP2 ADD AND DUP2 ADD SWAP1 DUP2 LT PUSH8 0xFFFFFFFFFFFFFFFF DUP3 GT OR PUSH2 0x160 JUMPI PUSH1 0x40 MSTORE JUMP JUMPDEST PUSH2 0x168 PUSH2 0x127 JUMP JUMPDEST PUSH1 0x40 MSTORE JUMP JUMPDEST POP CALLVALUE PUSH2 0xE JUMPI PUSH1 0x20 DUP1 PUSH1 0x3 NOT CALLDATASIZE ADD SLT PUSH2 0xE JUMPI PUSH1 0x0 DUP2 PUSH2 0x1EE PUSH1 0x1 PUSH1 0x1 PUSH1 0xA0 SHL SUB PUSH2 0x196 PUSH2 0xFD JUMP JUMPDEST PUSH1 0x40 MLOAD PUSH4 0x70A08231 PUSH1 0xE0 SHL DUP2 MSTORE ADDRESS PUSH1 0x4 DUP3 ADD MSTORE SWAP2 AND SWAP1 DUP4 DUP2 PUSH1 0x24 DUP2 DUP6 GAS STATICCALL SWAP1 DUP2 ISZERO PUSH2 0x261 JUMPI JUMPDEST DUP6 SWAP2 PUSH2 0x234 JUMPI JUMPDEST POP PUSH1 0x40 MLOAD PUSH4 0xA9059CBB PUSH1 0xE0 SHL DUP2 MSTORE CALLER PUSH1 0x4 DUP3 ADD MSTORE PUSH1 0x24 DUP2 ADD SWAP2 SWAP1 SWAP2 MSTORE SWAP4 DUP5 SWAP3 DUP4 SWAP2 SWAP1 DUP3 SWAP1 PUSH1 0x44 DUP3 ADD SWAP1 JUMP JUMPDEST SUB SWAP3 GAS CALL DUP1 ISZERO PUSH2 0x227 JUMPI JUMPDEST PUSH2 0x1FF JUMPI STOP JUMPDEST DUP2 PUSH2 0x21E SWAP3 SWAP1 RETURNDATASIZE LT PUSH2 0x220 JUMPI JUMPDEST PUSH2 0x216 DUP2 DUP4 PUSH2 0x13E JUMP JUMPDEST DUP2 ADD SWAP1 PUSH2 0x30B JUMP JUMPDEST STOP JUMPDEST POP RETURNDATASIZE PUSH2 0x20C JUMP JUMPDEST PUSH2 0x22F PUSH2 0x2B3 JUMP JUMPDEST PUSH2 0x1F9 JUMP JUMPDEST PUSH2 0x254 SWAP2 POP DUP5 RETURNDATASIZE DUP7 GT PUSH2 0x25A JUMPI JUMPDEST PUSH2 0x24C DUP2 DUP4 PUSH2 0x13E JUMP JUMPDEST DUP2 ADD SWAP1 PUSH2 0x2A4 JUMP JUMPDEST CODESIZE PUSH2 0x1C3 JUMP JUMPDEST POP RETURNDATASIZE PUSH2 0x242 JUMP JUMPDEST PUSH2 0x269 PUSH2 0x2B3 JUMP JUMPDEST PUSH2 0x1BC JUMP JUMPDEST POP PUSH4 0x4E487B71 PUSH1 0xE0 SHL PUSH1 0x0 MSTORE PUSH1 0x11 PUSH1 0x4 MSTORE PUSH1 0x24 PUSH1 0x0 REVERT JUMPDEST DUP1 PUSH1 0x0 NOT DIV DUP3 GT DUP2 ISZERO ISZERO AND PUSH2 0x298 JUMPI MUL SWAP1 JUMP JUMPDEST PUSH2 0x2A0 PUSH2 0x26E JUMP JUMPDEST MUL SWAP1 JUMP JUMPDEST SWAP1 DUP2 PUSH1 0x20 SWAP2 SUB SLT PUSH2 0xE JUMPI MLOAD SWAP1 JUMP JUMPDEST POP PUSH1 0x40 MLOAD RETURNDATASIZE PUSH1 0x0 DUP3 RETURNDATACOPY RETURNDATASIZE SWAP1 REVERT JUMPDEST ISZERO PUSH2 0x2C7 JUMPI JUMP JUMPDEST PUSH1 0x64 PUSH1 0x40 MLOAD PUSH3 0x461BCD PUSH1 0xE5 SHL DUP2 MSTORE PUSH1 0x20 PUSH1 0x4 DUP3 ADD MSTORE PUSH1 0x20 PUSH1 0x24 DUP3 ADD MSTORE PUSH32 0x496E73756666696369656E742062616C616E636520666F722061697264726F70 PUSH1 0x44 DUP3 ADD MSTORE REVERT JUMPDEST SWAP1 DUP2 PUSH1 0x20 SWAP2 SUB SLT PUSH2 0xE JUMPI MLOAD DUP1 ISZERO ISZERO DUP2 SUB PUSH2 0xE JUMPI SWAP1 JUMP JUMPDEST PUSH1 0x1 SWAP1 PUSH1 0x0 NOT DUP2 EQ PUSH2 0x333 JUMPI ADD SWAP1 JUMP JUMPDEST PUSH2 0x33B PUSH2 0x26E JUMP JUMPDEST ADD SWAP1 JUMP JUMPDEST DUP1 MLOAD DUP3 LT ISZERO PUSH2 0x353 JUMPI PUSH1 0x20 SWAP2 PUSH1 0x5 SHL ADD ADD SWAP1 JUMP JUMPDEST PUSH4 0x4E487B71 PUSH1 0xE0 SHL PUSH1 0x0 MSTORE PUSH1 0x32 PUSH1 0x4 MSTORE PUSH1 0x24 PUSH1 0x0 REVERT JUMPDEST ISZERO PUSH2 0x370 JUMPI JUMP JUMPDEST PUSH1 0x40 MLOAD PUSH3 0x461BCD PUSH1 0xE5 SHL DUP2 MSTORE PUSH1 0x20 PUSH1 0x4 DUP3 ADD MSTORE PUSH1 0x15 PUSH1 0x24 DUP3 ADD MSTORE PUSH21 0x151BDAD95B881D1C985B9CD9995C8819985A5B1959 PUSH1 0x5A SHL PUSH1 0x44 DUP3 ADD MSTORE PUSH1 0x64 SWAP1 REVERT JUMPDEST PUSH1 0x40 MLOAD SWAP1 DUP2 DUP2 DUP4 SWAP3 MLOAD PUSH1 0x20 DUP1 SWAP3 ADD SWAP2 PUSH1 0x0 JUMPDEST DUP3 DUP2 LT PUSH2 0x3D0 JUMPI POP POP POP POP SUB SWAP1 KECCAK256 SWAP1 JUMP JUMPDEST DUP4 MLOAD PUSH1 0x1 PUSH1 0x1 PUSH1 0xA0 SHL SUB AND DUP6 MSTORE DUP7 SWAP6 POP SWAP4 DUP2 ADD SWAP4 SWAP3 DUP2 ADD SWAP3 PUSH1 0x1 ADD PUSH2 0x3BF JUMP JUMPDEST SWAP3 SWAP2 SWAP1 SWAP3 PUSH1 0x1 DUP1 PUSH1 0xA0 SHL SUB AND PUSH2 0x407 DUP3 DUP6 MLOAD PUSH2 0x285 JUMP JUMPDEST PUSH1 0x40 DUP1 MLOAD PUSH4 0x70A08231 PUSH1 0xE0 SHL DUP2 MSTORE CALLER PUSH1 0x4 DUP1 DUP4 ADD SWAP2 SWAP1 SWAP2 MSTORE PUSH1 0x20 SWAP8 SWAP3 SWAP4 SWAP1 SWAP3 SWAP2 PUSH2 0x47B SWAP2 DUP10 SWAP2 PUSH2 0x453 SWAP1 DUP3 SWAP1 DUP5 DUP2 PUSH1 0x24 DUP2 DUP14 GAS STATICCALL SWAP1 DUP2 ISZERO PUSH2 0x5CF JUMPI JUMPDEST PUSH1 0x0 SWAP2 PUSH2 0x5B2 JUMPI JUMPDEST POP LT ISZERO PUSH2 0x2C0 JUMP JUMPDEST DUP6 MLOAD PUSH4 0x95EA7B3 PUSH1 0xE0 SHL DUP2 MSTORE ADDRESS DUP7 DUP3 ADD SWAP1 DUP2 MSTORE PUSH1 0x20 DUP2 ADD SWAP3 SWAP1 SWAP3 MSTORE SWAP3 DUP4 SWAP2 DUP3 SWAP2 PUSH1 0x40 SWAP1 SWAP2 ADD SWAP1 JUMP JUMPDEST SUB DUP2 PUSH1 0x0 DUP10 GAS CALL DUP1 ISZERO PUSH2 0x5A5 JUMPI JUMPDEST PUSH2 0x588 JUMPI JUMPDEST POP PUSH1 0x0 JUMPDEST DUP2 MLOAD DUP2 LT ISZERO PUSH2 0x54B JUMPI DUP1 PUSH2 0x517 PUSH2 0x4FA DUP11 DUP10 PUSH2 0x4C1 PUSH2 0x4B4 PUSH2 0x51C SWAP8 DUP10 PUSH2 0x33F JUMP JUMPDEST MLOAD PUSH1 0x1 PUSH1 0x1 PUSH1 0xA0 SHL SUB AND SWAP1 JUMP JUMPDEST DUP10 MLOAD PUSH4 0x23B872DD PUSH1 0xE0 SHL DUP2 MSTORE CALLER DUP11 DUP3 ADD SWAP1 DUP2 MSTORE PUSH1 0x1 PUSH1 0x1 PUSH1 0xA0 SHL SUB SWAP1 SWAP3 AND PUSH1 0x20 DUP4 ADD MSTORE PUSH1 0x40 DUP3 ADD SWAP3 SWAP1 SWAP3 MSTORE SWAP1 SWAP3 DUP4 SWAP2 DUP3 SWAP2 PUSH1 0x60 SWAP1 SWAP2 ADD SWAP1 JUMP JUMPDEST SUB DUP2 PUSH1 0x0 DUP13 GAS CALL SWAP1 DUP2 ISZERO PUSH2 0x53E JUMPI JUMPDEST PUSH1 0x0 SWAP2 PUSH2 0x521 JUMPI JUMPDEST POP PUSH2 0x369 JUMP JUMPDEST PUSH2 0x323 JUMP JUMPDEST PUSH2 0x492 JUMP JUMPDEST PUSH2 0x538 SWAP2 POP DUP12 RETURNDATASIZE DUP14 GT PUSH2 0x220 JUMPI PUSH2 0x216 DUP2 DUP4 PUSH2 0x13E JUMP JUMPDEST CODESIZE PUSH2 0x511 JUMP JUMPDEST PUSH2 0x546 PUSH2 0x2B3 JUMP JUMPDEST PUSH2 0x509 JUMP JUMPDEST POP PUSH32 0x5ACA639021AC708A0E24A618EC97CE2DB15CB8B1F3E29067BE73A49F5F3A2F3B SWAP3 SWAP6 SWAP7 POP PUSH2 0x57B SWAP2 POP PUSH2 0x3AD JUMP JUMPDEST SWAP4 MLOAD SWAP3 DUP4 MSTORE CALLER SWAP3 PUSH1 0x20 SWAP1 LOG4 JUMP JUMPDEST PUSH2 0x59E SWAP1 DUP9 RETURNDATASIZE DUP11 GT PUSH2 0x220 JUMPI PUSH2 0x216 DUP2 DUP4 PUSH2 0x13E JUMP JUMPDEST POP CODESIZE PUSH2 0x48E JUMP JUMPDEST PUSH2 0x5AD PUSH2 0x2B3 JUMP JUMPDEST PUSH2 0x489 JUMP JUMPDEST PUSH2 0x5C9 SWAP2 POP DUP6 RETURNDATASIZE DUP8 GT PUSH2 0x25A JUMPI PUSH2 0x24C DUP2 DUP4 PUSH2 0x13E JUMP JUMPDEST CODESIZE PUSH2 0x44B JUMP JUMPDEST PUSH2 0x5D7 PUSH2 0x2B3 JUMP JUMPDEST PUSH2 0x443 JUMP INVALID LOG2 PUSH5 0x6970667358 0x22 SLT KECCAK256 CALLER RETURNDATACOPY PUSH21 0x42A9A21DD12BACB218EA04DF56FAFE9B4E55128111 0xD6 PUSH7 0x4F8BEC94257364 PUSH20 0x6F6C634300080D00330000000000000000000000 "},"methodIdentifiers":{"createAirdrop(address,address[],uint256)":"3ddd92d0","withdraw(address)":"51cff8d9"}}}}}