{"contracts/presale.sol":{"PresaleContract":{"abi":[{"anonymous":false,"inputs":[{"indexed":true,"internalType":"uint256","name":"_tokenAddress","type":"uint256"},{"indexed":false,"internalType":"uint256","name":"_totalTokens","type":"uint256"},{"indexed":false,"internalType":"uint256","name":"_startTime","type":"uint256"},{"indexed":false,"internalType":"uint256","name":"_endTime","type":"uint256"},{"indexed":false,"internalType":"uint256","name":"_softcap","type":"uint256"},{"indexed":false,"internalType":"uint256","name":"_hardcap","type":"uint256"}],"name":"PresaleCreated","type":"event"},{"inputs":[{"internalType":"address","name":"_tokenAddress","type":"address"},{"internalType":"uint256","name":"_presalePrice","type":"uint256"},{"internalType":"uint256","name":"_listingPrice","type":"uint256"},{"internalType":"uint256","name":"_softcap","type":"uint256"},{"internalType":"uint256","name":"_hardcap","type":"uint256"},{"internalType":"uint256","name":"_minContribution","type":"uint256"},{"internalType":"uint256","name":"_maxContribution","type":"uint256"},{"internalType":"uint256","name":"_startTime","type":"uint256"},{"internalType":"uint256","name":"_endTime","type":"uint256"},{"internalType":"uint256","name":"_tokensToSell","type":"uint256"},{"internalType":"uint8","name":"_liquidityPercentage","type":"uint8"},{"internalType":"bool","name":"_haveWhitelistedUsers","type":"bool"},{"internalType":"address[]","name":"_whitelistedUsers","type":"address[]"},{"internalType":"uint256","name":"_liquidityUnlockTime","type":"uint256"}],"name":"createPresale","outputs":[],"stateMutability":"nonpayable","type":"function"},{"inputs":[{"internalType":"address","name":"_tokenAddress","type":"address"}],"name":"getInvestment","outputs":[{"internalType":"uint256","name":"","type":"uint256"}],"stateMutability":"view","type":"function"},{"inputs":[],"name":"getPresalesByOwner","outputs":[{"internalType":"address[]","name":"","type":"address[]"}],"stateMutability":"view","type":"function"},{"inputs":[{"internalType":"address","name":"","type":"address"}],"name":"presales","outputs":[{"internalType":"address","name":"owner","type":"address"},{"internalType":"uint256","name":"presalePrice","type":"uint256"},{"internalType":"uint256","name":"listingPrice","type":"uint256"},{"internalType":"uint256","name":"softcap","type":"uint256"},{"internalType":"uint256","name":"hardcap","type":"uint256"},{"internalType":"uint256","name":"minContribution","type":"uint256"},{"internalType":"uint256","name":"maxContribution","type":"uint256"},{"internalType":"uint256","name":"startTime","type":"uint256"},{"internalType":"uint256","name":"endTime","type":"uint256"},{"internalType":"uint256","name":"tokensToSell","type":"uint256"},{"internalType":"uint8","name":"liquidityPercentage","type":"uint8"},{"internalType":"uint256","name":"liquidityUnlockTime","type":"uint256"},{"internalType":"bool","name":"haveWhitelistedUsers","type":"bool"},{"internalType":"uint256","name":"totalInvestment","type":"uint256"}],"stateMutability":"view","type":"function"}],"evm":{"bytecode":{"linkReferences":{},"object":"608080604052346100165761092d908161001c8239f35b600080fdfe608080604052600436101561001357600080fd5b6000803560e01c918263146b58df1461006e57505080634512137d14610065578063af8b95921461005c5763efcd708f1461004f575b38600080fd5b610057610392565b610049565b5061005761029b565b506100576101d2565b346100a65760203660031901126100a657602091600d906040906001600160a01b036100986100aa565b168152600285522001548152f35b5080fd5b600435906001600160a01b03821682036100c057565b600080fd5b610144359060ff821682036100c057565b610164359081151582036100c057565b50634e487b7160e01b600052604160045260246000fd5b90601f8019910116810190811067ffffffffffffffff82111761011f57604052565b6101276100e6565b604052565b604051906101c0820182811067ffffffffffffffff82111761011f57604052565b9080601f830112156100c05781359067ffffffffffffffff82116101c5575b8160051b60405193602093610183858401876100fd565b855283808601928201019283116100c0578301905b8282106101a6575050505090565b81356001600160a01b03811681036100c0578152908301908301610198565b6101cd6100e6565b61016c565b50346100c0576101c03660031901126100c0576101ed6100aa565b6101f56100c5565b906101fe6100d6565b91610184359267ffffffffffffffff84116100c05761022461025594369060040161014d565b916101a435936101243590610104359060e4359060c4359060a4359060843590606435906044359060243590610778565b005b6020908160408183019282815285518094520193019160005b82811061027e575050505090565b83516001600160a01b031685529381019392810192600101610270565b50346100c0576000806003193601126103195733815260206003815260408220916040518092808554928381520194835280832092905b8282106102f9576102f5856102e9818903826100fd565b60405191829182610257565b0390f35b83546001600160a01b0316865294850194600193840193909101906102d2565b80fd5b9b99979593919e9d9c9a98969492909e6101c08d019f600160a01b60019003168d5260208d015260408c015260608b015260808a015260a089015260c088015260e087015261010086015261012085015260ff16610140840152610160830152610180820161038b9115159052565b6101a00152565b50346100c05760203660031901126100c0576001600160a01b036103b46100aa565b16600090815260026020526040902080546001600160a01b03166102f560018301549260028101549060038101546004820154600583015460068401546007850154600886015491600987015493610410600a89015460ff1690565b95600b89015497600d610427600c8c015460ff1690565b9a01549a6040519e8f9e8f61031c565b1561043e57565b60405162461bcd60e51b815260206004820152602560248201527f50726573616c653a2053746172742074696d65206d75737420626520696e2066604482015264757475726560d81b6064820152608490fd5b1561049857565b60405162461bcd60e51b815260206004820152602a60248201527f50726573616c653a20456e642074696d65206d7573742062652061667465722060448201526973746172742074696d6560b01b6064820152608490fd5b156104f757565b60405162461bcd60e51b815260206004820152602d60248201527f50726573616c653a2048617264636170206d757374206265206772656174657260448201526c0207468616e20736f667463617609c1b6064820152608490fd5b1561055957565b60405162461bcd60e51b815260206004820152603060248201527f50726573616c653a204d617820636f6e747269627574696f6e206d757374206260448201526f0652067726561746572207468616e20360841b6064820152608490fd5b156105be57565b60405162461bcd60e51b815260206004820152603060248201527f50726573616c653a204d696e20636f6e747269627574696f6e206d757374206260448201526f0652067726561746572207468616e20360841b6064820152608490fd5b815181546001600160a01b0319166001600160a01b0390911617815590600d906101a0906020810151600185015560408101516002850155606081015160038501556080810151600485015560a0810151600585015560c0810151600685015560e08101516007850155610100810151600885015561012081015160098501556106c16106ae61014083015160ff1690565b600a86019060ff1660ff19825416179055565b610160810151600b8501556106f26106dd610180830151151590565b600c86019060ff801983541691151516179055565b0151910155565b50634e487b7160e01b600052603260045260246000fd5b8054906801000000000000000082101561076b575b6001820180825582101561075e575b6000526020600020019060018060a01b03166bffffffffffffffffffffffff60a01b825416179055565b6107666106f9565b610734565b6107736100e6565b610725565b9b9a999461083f999461080c979299946108599f999461079a42871015610437565b6107a5868811610491565b6107b08284116104f0565b6107bb851515610552565b6107c68415156105b7565b6107ce61012c565b3381529b60208d015260408c015260608b015260808a015260a089015260c088015260e087015261010086015261012085015260ff16610140840152565b61016082015282151561018082015260006101a082018190526001600160a01b038616815260026020526040902061061c565b61085b575b50336000908152600360205260409020610710565b565b610865908261086b565b38610844565b60005b82518110156108f2576108be60018060a01b0380841660005260209060008252604091826000209187518610156108e5575b818660051b890101511660005252600020600160ff19825416179055565b60001981146108cf5760010161086e565b634e487b7160e01b600052601160045260246000fd5b6108ed6106f9565b6108a0565b50505056fea26469706673582212204123e745cb16a4bc9bcb7df0b4e8616ecefc5f81a514d70de67f7e819bf4e2bb64736f6c634300080d0033","opcodes":"PUSH1 0x80 DUP1 PUSH1 0x40 MSTORE CALLVALUE PUSH2 0x16 JUMPI PUSH2 0x92D SWAP1 DUP2 PUSH2 0x1C DUP3 CODECOPY RETURN JUMPDEST PUSH1 0x0 DUP1 REVERT INVALID PUSH1 0x80 DUP1 PUSH1 0x40 MSTORE PUSH1 0x4 CALLDATASIZE LT ISZERO PUSH2 0x13 JUMPI PUSH1 0x0 DUP1 REVERT JUMPDEST PUSH1 0x0 DUP1 CALLDATALOAD PUSH1 0xE0 SHR SWAP2 DUP3 PUSH4 0x146B58DF EQ PUSH2 0x6E JUMPI POP POP DUP1 PUSH4 0x4512137D EQ PUSH2 0x65 JUMPI DUP1 PUSH4 0xAF8B9592 EQ PUSH2 0x5C JUMPI PUSH4 0xEFCD708F EQ PUSH2 0x4F JUMPI JUMPDEST CODESIZE PUSH1 0x0 DUP1 REVERT JUMPDEST PUSH2 0x57 PUSH2 0x392 JUMP JUMPDEST PUSH2 0x49 JUMP JUMPDEST POP PUSH2 0x57 PUSH2 0x29B JUMP JUMPDEST POP PUSH2 0x57 PUSH2 0x1D2 JUMP JUMPDEST CALLVALUE PUSH2 0xA6 JUMPI PUSH1 0x20 CALLDATASIZE PUSH1 0x3 NOT ADD SLT PUSH2 0xA6 JUMPI PUSH1 0x20 SWAP2 PUSH1 0xD SWAP1 PUSH1 0x40 SWAP1 PUSH1 0x1 PUSH1 0x1 PUSH1 0xA0 SHL SUB PUSH2 0x98 PUSH2 0xAA JUMP JUMPDEST AND DUP2 MSTORE PUSH1 0x2 DUP6 MSTORE KECCAK256 ADD SLOAD DUP2 MSTORE RETURN JUMPDEST POP DUP1 REVERT JUMPDEST PUSH1 0x4 CALLDATALOAD SWAP1 PUSH1 0x1 PUSH1 0x1 PUSH1 0xA0 SHL SUB DUP3 AND DUP3 SUB PUSH2 0xC0 JUMPI JUMP JUMPDEST PUSH1 0x0 DUP1 REVERT JUMPDEST PUSH2 0x144 CALLDATALOAD SWAP1 PUSH1 0xFF DUP3 AND DUP3 SUB PUSH2 0xC0 JUMPI JUMP JUMPDEST PUSH2 0x164 CALLDATALOAD SWAP1 DUP2 ISZERO ISZERO DUP3 SUB PUSH2 0xC0 JUMPI JUMP JUMPDEST POP PUSH4 0x4E487B71 PUSH1 0xE0 SHL PUSH1 0x0 MSTORE PUSH1 0x41 PUSH1 0x4 MSTORE PUSH1 0x24 PUSH1 0x0 REVERT JUMPDEST SWAP1 PUSH1 0x1F DUP1 NOT SWAP2 ADD AND DUP2 ADD SWAP1 DUP2 LT PUSH8 0xFFFFFFFFFFFFFFFF DUP3 GT OR PUSH2 0x11F JUMPI PUSH1 0x40 MSTORE JUMP JUMPDEST PUSH2 0x127 PUSH2 0xE6 JUMP JUMPDEST PUSH1 0x40 MSTORE JUMP JUMPDEST PUSH1 0x40 MLOAD SWAP1 PUSH2 0x1C0 DUP3 ADD DUP3 DUP2 LT PUSH8 0xFFFFFFFFFFFFFFFF DUP3 GT OR PUSH2 0x11F JUMPI PUSH1 0x40 MSTORE JUMP JUMPDEST SWAP1 DUP1 PUSH1 0x1F DUP4 ADD SLT ISZERO PUSH2 0xC0 JUMPI DUP2 CALLDATALOAD SWAP1 PUSH8 0xFFFFFFFFFFFFFFFF DUP3 GT PUSH2 0x1C5 JUMPI JUMPDEST DUP2 PUSH1 0x5 SHL PUSH1 0x40 MLOAD SWAP4 PUSH1 0x20 SWAP4 PUSH2 0x183 DUP6 DUP5 ADD DUP8 PUSH2 0xFD JUMP JUMPDEST DUP6 MSTORE DUP4 DUP1 DUP7 ADD SWAP3 DUP3 ADD ADD SWAP3 DUP4 GT PUSH2 0xC0 JUMPI DUP4 ADD SWAP1 JUMPDEST DUP3 DUP3 LT PUSH2 0x1A6 JUMPI POP POP POP POP SWAP1 JUMP JUMPDEST DUP2 CALLDATALOAD PUSH1 0x1 PUSH1 0x1 PUSH1 0xA0 SHL SUB DUP2 AND DUP2 SUB PUSH2 0xC0 JUMPI DUP2 MSTORE SWAP1 DUP4 ADD SWAP1 DUP4 ADD PUSH2 0x198 JUMP JUMPDEST PUSH2 0x1CD PUSH2 0xE6 JUMP JUMPDEST PUSH2 0x16C JUMP JUMPDEST POP CALLVALUE PUSH2 0xC0 JUMPI PUSH2 0x1C0 CALLDATASIZE PUSH1 0x3 NOT ADD SLT PUSH2 0xC0 JUMPI PUSH2 0x1ED PUSH2 0xAA JUMP JUMPDEST PUSH2 0x1F5 PUSH2 0xC5 JUMP JUMPDEST SWAP1 PUSH2 0x1FE PUSH2 0xD6 JUMP JUMPDEST SWAP2 PUSH2 0x184 CALLDATALOAD SWAP3 PUSH8 0xFFFFFFFFFFFFFFFF DUP5 GT PUSH2 0xC0 JUMPI PUSH2 0x224 PUSH2 0x255 SWAP5 CALLDATASIZE SWAP1 PUSH1 0x4 ADD PUSH2 0x14D JUMP JUMPDEST SWAP2 PUSH2 0x1A4 CALLDATALOAD SWAP4 PUSH2 0x124 CALLDATALOAD SWAP1 PUSH2 0x104 CALLDATALOAD SWAP1 PUSH1 0xE4 CALLDATALOAD SWAP1 PUSH1 0xC4 CALLDATALOAD SWAP1 PUSH1 0xA4 CALLDATALOAD SWAP1 PUSH1 0x84 CALLDATALOAD SWAP1 PUSH1 0x64 CALLDATALOAD SWAP1 PUSH1 0x44 CALLDATALOAD SWAP1 PUSH1 0x24 CALLDATALOAD SWAP1 PUSH2 0x778 JUMP JUMPDEST STOP JUMPDEST PUSH1 0x20 SWAP1 DUP2 PUSH1 0x40 DUP2 DUP4 ADD SWAP3 DUP3 DUP2 MSTORE DUP6 MLOAD DUP1 SWAP5 MSTORE ADD SWAP4 ADD SWAP2 PUSH1 0x0 JUMPDEST DUP3 DUP2 LT PUSH2 0x27E JUMPI POP POP POP POP SWAP1 JUMP JUMPDEST DUP4 MLOAD PUSH1 0x1 PUSH1 0x1 PUSH1 0xA0 SHL SUB AND DUP6 MSTORE SWAP4 DUP2 ADD SWAP4 SWAP3 DUP2 ADD SWAP3 PUSH1 0x1 ADD PUSH2 0x270 JUMP JUMPDEST POP CALLVALUE PUSH2 0xC0 JUMPI PUSH1 0x0 DUP1 PUSH1 0x3 NOT CALLDATASIZE ADD SLT PUSH2 0x319 JUMPI CALLER DUP2 MSTORE PUSH1 0x20 PUSH1 0x3 DUP2 MSTORE PUSH1 0x40 DUP3 KECCAK256 SWAP2 PUSH1 0x40 MLOAD DUP1 SWAP3 DUP1 DUP6 SLOAD SWAP3 DUP4 DUP2 MSTORE ADD SWAP5 DUP4 MSTORE DUP1 DUP4 KECCAK256 SWAP3 SWAP1 JUMPDEST DUP3 DUP3 LT PUSH2 0x2F9 JUMPI PUSH2 0x2F5 DUP6 PUSH2 0x2E9 DUP2 DUP10 SUB DUP3 PUSH2 0xFD JUMP JUMPDEST PUSH1 0x40 MLOAD SWAP2 DUP3 SWAP2 DUP3 PUSH2 0x257 JUMP JUMPDEST SUB SWAP1 RETURN JUMPDEST DUP4 SLOAD PUSH1 0x1 PUSH1 0x1 PUSH1 0xA0 SHL SUB AND DUP7 MSTORE SWAP5 DUP6 ADD SWAP5 PUSH1 0x1 SWAP4 DUP5 ADD SWAP4 SWAP1 SWAP2 ADD SWAP1 PUSH2 0x2D2 JUMP JUMPDEST DUP1 REVERT JUMPDEST SWAP12 SWAP10 SWAP8 SWAP6 SWAP4 SWAP2 SWAP15 SWAP14 SWAP13 SWAP11 SWAP9 SWAP7 SWAP5 SWAP3 SWAP1 SWAP15 PUSH2 0x1C0 DUP14 ADD SWAP16 PUSH1 0x1 PUSH1 0xA0 SHL PUSH1 0x1 SWAP1 SUB AND DUP14 MSTORE PUSH1 0x20 DUP14 ADD MSTORE PUSH1 0x40 DUP13 ADD MSTORE PUSH1 0x60 DUP12 ADD MSTORE PUSH1 0x80 DUP11 ADD MSTORE PUSH1 0xA0 DUP10 ADD MSTORE PUSH1 0xC0 DUP9 ADD MSTORE PUSH1 0xE0 DUP8 ADD MSTORE PUSH2 0x100 DUP7 ADD MSTORE PUSH2 0x120 DUP6 ADD MSTORE PUSH1 0xFF AND PUSH2 0x140 DUP5 ADD MSTORE PUSH2 0x160 DUP4 ADD MSTORE PUSH2 0x180 DUP3 ADD PUSH2 0x38B SWAP2 ISZERO ISZERO SWAP1 MSTORE JUMP JUMPDEST PUSH2 0x1A0 ADD MSTORE JUMP JUMPDEST POP CALLVALUE PUSH2 0xC0 JUMPI PUSH1 0x20 CALLDATASIZE PUSH1 0x3 NOT ADD SLT PUSH2 0xC0 JUMPI PUSH1 0x1 PUSH1 0x1 PUSH1 0xA0 SHL SUB PUSH2 0x3B4 PUSH2 0xAA JUMP JUMPDEST AND PUSH1 0x0 SWAP1 DUP2 MSTORE PUSH1 0x2 PUSH1 0x20 MSTORE PUSH1 0x40 SWAP1 KECCAK256 DUP1 SLOAD PUSH1 0x1 PUSH1 0x1 PUSH1 0xA0 SHL SUB AND PUSH2 0x2F5 PUSH1 0x1 DUP4 ADD SLOAD SWAP3 PUSH1 0x2 DUP2 ADD SLOAD SWAP1 PUSH1 0x3 DUP2 ADD SLOAD PUSH1 0x4 DUP3 ADD SLOAD PUSH1 0x5 DUP4 ADD SLOAD PUSH1 0x6 DUP5 ADD SLOAD PUSH1 0x7 DUP6 ADD SLOAD PUSH1 0x8 DUP7 ADD SLOAD SWAP2 PUSH1 0x9 DUP8 ADD SLOAD SWAP4 PUSH2 0x410 PUSH1 0xA DUP10 ADD SLOAD PUSH1 0xFF AND SWAP1 JUMP JUMPDEST SWAP6 PUSH1 0xB DUP10 ADD SLOAD SWAP8 PUSH1 0xD PUSH2 0x427 PUSH1 0xC DUP13 ADD SLOAD PUSH1 0xFF AND SWAP1 JUMP JUMPDEST SWAP11 ADD SLOAD SWAP11 PUSH1 0x40 MLOAD SWAP15 DUP16 SWAP15 DUP16 PUSH2 0x31C JUMP JUMPDEST ISZERO PUSH2 0x43E JUMPI JUMP JUMPDEST PUSH1 0x40 MLOAD PUSH3 0x461BCD PUSH1 0xE5 SHL DUP2 MSTORE PUSH1 0x20 PUSH1 0x4 DUP3 ADD MSTORE PUSH1 0x25 PUSH1 0x24 DUP3 ADD MSTORE PUSH32 0x50726573616C653A2053746172742074696D65206D75737420626520696E2066 PUSH1 0x44 DUP3 ADD MSTORE PUSH5 0x7574757265 PUSH1 0xD8 SHL PUSH1 0x64 DUP3 ADD MSTORE PUSH1 0x84 SWAP1 REVERT JUMPDEST ISZERO PUSH2 0x498 JUMPI JUMP JUMPDEST PUSH1 0x40 MLOAD PUSH3 0x461BCD PUSH1 0xE5 SHL DUP2 MSTORE PUSH1 0x20 PUSH1 0x4 DUP3 ADD MSTORE PUSH1 0x2A PUSH1 0x24 DUP3 ADD MSTORE PUSH32 0x50726573616C653A20456E642074696D65206D75737420626520616674657220 PUSH1 0x44 DUP3 ADD MSTORE PUSH10 0x73746172742074696D65 PUSH1 0xB0 SHL PUSH1 0x64 DUP3 ADD MSTORE PUSH1 0x84 SWAP1 REVERT JUMPDEST ISZERO PUSH2 0x4F7 JUMPI JUMP JUMPDEST PUSH1 0x40 MLOAD PUSH3 0x461BCD PUSH1 0xE5 SHL DUP2 MSTORE PUSH1 0x20 PUSH1 0x4 DUP3 ADD MSTORE PUSH1 0x2D PUSH1 0x24 DUP3 ADD MSTORE PUSH32 0x50726573616C653A2048617264636170206D7573742062652067726561746572 PUSH1 0x44 DUP3 ADD MSTORE PUSH13 0x207468616E20736F667463617 PUSH1 0x9C SHL PUSH1 0x64 DUP3 ADD MSTORE PUSH1 0x84 SWAP1 REVERT JUMPDEST ISZERO PUSH2 0x559 JUMPI JUMP JUMPDEST PUSH1 0x40 MLOAD PUSH3 0x461BCD PUSH1 0xE5 SHL DUP2 MSTORE PUSH1 0x20 PUSH1 0x4 DUP3 ADD MSTORE PUSH1 0x30 PUSH1 0x24 DUP3 ADD MSTORE PUSH32 0x50726573616C653A204D617820636F6E747269627574696F6E206D7573742062 PUSH1 0x44 DUP3 ADD MSTORE PUSH16 0x652067726561746572207468616E203 PUSH1 0x84 SHL PUSH1 0x64 DUP3 ADD MSTORE PUSH1 0x84 SWAP1 REVERT JUMPDEST ISZERO PUSH2 0x5BE JUMPI JUMP JUMPDEST PUSH1 0x40 MLOAD PUSH3 0x461BCD PUSH1 0xE5 SHL DUP2 MSTORE PUSH1 0x20 PUSH1 0x4 DUP3 ADD MSTORE PUSH1 0x30 PUSH1 0x24 DUP3 ADD MSTORE PUSH32 0x50726573616C653A204D696E20636F6E747269627574696F6E206D7573742062 PUSH1 0x44 DUP3 ADD MSTORE PUSH16 0x652067726561746572207468616E203 PUSH1 0x84 SHL PUSH1 0x64 DUP3 ADD MSTORE PUSH1 0x84 SWAP1 REVERT JUMPDEST DUP2 MLOAD DUP2 SLOAD PUSH1 0x1 PUSH1 0x1 PUSH1 0xA0 SHL SUB NOT AND PUSH1 0x1 PUSH1 0x1 PUSH1 0xA0 SHL SUB SWAP1 SWAP2 AND OR DUP2 SSTORE SWAP1 PUSH1 0xD SWAP1 PUSH2 0x1A0 SWAP1 PUSH1 0x20 DUP2 ADD MLOAD PUSH1 0x1 DUP6 ADD SSTORE PUSH1 0x40 DUP2 ADD MLOAD PUSH1 0x2 DUP6 ADD SSTORE PUSH1 0x60 DUP2 ADD MLOAD PUSH1 0x3 DUP6 ADD SSTORE PUSH1 0x80 DUP2 ADD MLOAD PUSH1 0x4 DUP6 ADD SSTORE PUSH1 0xA0 DUP2 ADD MLOAD PUSH1 0x5 DUP6 ADD SSTORE PUSH1 0xC0 DUP2 ADD MLOAD PUSH1 0x6 DUP6 ADD SSTORE PUSH1 0xE0 DUP2 ADD MLOAD PUSH1 0x7 DUP6 ADD SSTORE PUSH2 0x100 DUP2 ADD MLOAD PUSH1 0x8 DUP6 ADD SSTORE PUSH2 0x120 DUP2 ADD MLOAD PUSH1 0x9 DUP6 ADD SSTORE PUSH2 0x6C1 PUSH2 0x6AE PUSH2 0x140 DUP4 ADD MLOAD PUSH1 0xFF AND SWAP1 JUMP JUMPDEST PUSH1 0xA DUP7 ADD SWAP1 PUSH1 0xFF AND PUSH1 0xFF NOT DUP3 SLOAD AND OR SWAP1 SSTORE JUMP JUMPDEST PUSH2 0x160 DUP2 ADD MLOAD PUSH1 0xB DUP6 ADD SSTORE PUSH2 0x6F2 PUSH2 0x6DD PUSH2 0x180 DUP4 ADD MLOAD ISZERO ISZERO SWAP1 JUMP JUMPDEST PUSH1 0xC DUP7 ADD SWAP1 PUSH1 0xFF DUP1 NOT DUP4 SLOAD AND SWAP2 ISZERO ISZERO AND OR SWAP1 SSTORE JUMP JUMPDEST ADD MLOAD SWAP2 ADD SSTORE JUMP JUMPDEST POP PUSH4 0x4E487B71 PUSH1 0xE0 SHL PUSH1 0x0 MSTORE PUSH1 0x32 PUSH1 0x4 MSTORE PUSH1 0x24 PUSH1 0x0 REVERT JUMPDEST DUP1 SLOAD SWAP1 PUSH9 0x10000000000000000 DUP3 LT ISZERO PUSH2 0x76B JUMPI JUMPDEST PUSH1 0x1 DUP3 ADD DUP1 DUP3 SSTORE DUP3 LT ISZERO PUSH2 0x75E JUMPI JUMPDEST PUSH1 0x0 MSTORE PUSH1 0x20 PUSH1 0x0 KECCAK256 ADD SWAP1 PUSH1 0x1 DUP1 PUSH1 0xA0 SHL SUB AND PUSH12 0xFFFFFFFFFFFFFFFFFFFFFFFF PUSH1 0xA0 SHL DUP3 SLOAD AND OR SWAP1 SSTORE JUMP JUMPDEST PUSH2 0x766 PUSH2 0x6F9 JUMP JUMPDEST PUSH2 0x734 JUMP JUMPDEST PUSH2 0x773 PUSH2 0xE6 JUMP JUMPDEST PUSH2 0x725 JUMP JUMPDEST SWAP12 SWAP11 SWAP10 SWAP5 PUSH2 0x83F SWAP10 SWAP5 PUSH2 0x80C SWAP8 SWAP3 SWAP10 SWAP5 PUSH2 0x859 SWAP16 SWAP10 SWAP5 PUSH2 0x79A TIMESTAMP DUP8 LT ISZERO PUSH2 0x437 JUMP JUMPDEST PUSH2 0x7A5 DUP7 DUP9 GT PUSH2 0x491 JUMP JUMPDEST PUSH2 0x7B0 DUP3 DUP5 GT PUSH2 0x4F0 JUMP JUMPDEST PUSH2 0x7BB DUP6 ISZERO ISZERO PUSH2 0x552 JUMP JUMPDEST PUSH2 0x7C6 DUP5 ISZERO ISZERO PUSH2 0x5B7 JUMP JUMPDEST PUSH2 0x7CE PUSH2 0x12C JUMP JUMPDEST CALLER DUP2 MSTORE SWAP12 PUSH1 0x20 DUP14 ADD MSTORE PUSH1 0x40 DUP13 ADD MSTORE PUSH1 0x60 DUP12 ADD MSTORE PUSH1 0x80 DUP11 ADD MSTORE PUSH1 0xA0 DUP10 ADD MSTORE PUSH1 0xC0 DUP9 ADD MSTORE PUSH1 0xE0 DUP8 ADD MSTORE PUSH2 0x100 DUP7 ADD MSTORE PUSH2 0x120 DUP6 ADD MSTORE PUSH1 0xFF AND PUSH2 0x140 DUP5 ADD MSTORE JUMP JUMPDEST PUSH2 0x160 DUP3 ADD MSTORE DUP3 ISZERO ISZERO PUSH2 0x180 DUP3 ADD MSTORE PUSH1 0x0 PUSH2 0x1A0 DUP3 ADD DUP2 SWAP1 MSTORE PUSH1 0x1 PUSH1 0x1 PUSH1 0xA0 SHL SUB DUP7 AND DUP2 MSTORE PUSH1 0x2 PUSH1 0x20 MSTORE PUSH1 0x40 SWAP1 KECCAK256 PUSH2 0x61C JUMP JUMPDEST PUSH2 0x85B JUMPI JUMPDEST POP CALLER PUSH1 0x0 SWAP1 DUP2 MSTORE PUSH1 0x3 PUSH1 0x20 MSTORE PUSH1 0x40 SWAP1 KECCAK256 PUSH2 0x710 JUMP JUMPDEST JUMP JUMPDEST PUSH2 0x865 SWAP1 DUP3 PUSH2 0x86B JUMP JUMPDEST CODESIZE PUSH2 0x844 JUMP JUMPDEST PUSH1 0x0 JUMPDEST DUP3 MLOAD DUP2 LT ISZERO PUSH2 0x8F2 JUMPI PUSH2 0x8BE PUSH1 0x1 DUP1 PUSH1 0xA0 SHL SUB DUP1 DUP5 AND PUSH1 0x0 MSTORE PUSH1 0x20 SWAP1 PUSH1 0x0 DUP3 MSTORE PUSH1 0x40 SWAP2 DUP3 PUSH1 0x0 KECCAK256 SWAP2 DUP8 MLOAD DUP7 LT ISZERO PUSH2 0x8E5 JUMPI JUMPDEST DUP2 DUP7 PUSH1 0x5 SHL DUP10 ADD ADD MLOAD AND PUSH1 0x0 MSTORE MSTORE PUSH1 0x0 KECCAK256 PUSH1 0x1 PUSH1 0xFF NOT DUP3 SLOAD AND OR SWAP1 SSTORE JUMP JUMPDEST PUSH1 0x0 NOT DUP2 EQ PUSH2 0x8CF JUMPI PUSH1 0x1 ADD PUSH2 0x86E JUMP JUMPDEST PUSH4 0x4E487B71 PUSH1 0xE0 SHL PUSH1 0x0 MSTORE PUSH1 0x11 PUSH1 0x4 MSTORE PUSH1 0x24 PUSH1 0x0 REVERT JUMPDEST PUSH2 0x8ED PUSH2 0x6F9 JUMP JUMPDEST PUSH2 0x8A0 JUMP JUMPDEST POP POP POP JUMP INVALID LOG2 PUSH5 0x6970667358 0x22 SLT KECCAK256 COINBASE 0x23 0xE7 GASLIMIT 0xCB AND LOG4 0xBC SWAP12 0xCB PUSH30 0xF0B4E8616ECEFC5F81A514D70DE67F7E819BF4E2BB64736F6C634300080D STOP CALLER "},"methodIdentifiers":{"createPresale(address,uint256,uint256,uint256,uint256,uint256,uint256,uint256,uint256,uint256,uint8,bool,address[],uint256)":"4512137d","getInvestment(address)":"146b58df","getPresalesByOwner()":"af8b9592","presales(address)":"efcd708f"}}}}}