{"contracts/lock.sol":{"LiquidityLock":{"abi":[{"inputs":[{"internalType":"address","name":"_tokenAddress","type":"address"}],"name":"getPoolData","outputs":[{"internalType":"uint256","name":"startedDate","type":"uint256"},{"internalType":"uint256","name":"endDate","type":"uint256"},{"internalType":"uint256","name":"amount","type":"uint256"},{"internalType":"address","name":"managerAddress","type":"address"}],"stateMutability":"view","type":"function"},{"inputs":[{"internalType":"address","name":"_tokenAddress","type":"address"}],"name":"getTokens","outputs":[],"stateMutability":"nonpayable","type":"function"},{"inputs":[{"internalType":"uint256","name":"_endDate","type":"uint256"},{"internalType":"uint256","name":"_amount","type":"uint256"},{"internalType":"address","name":"_tokenAddress","type":"address"}],"name":"lockTokens","outputs":[],"stateMutability":"nonpayable","type":"function"},{"inputs":[],"name":"poolCount","outputs":[{"internalType":"uint256","name":"","type":"uint256"}],"stateMutability":"view","type":"function"},{"inputs":[{"internalType":"address","name":"","type":"address"}],"name":"pools","outputs":[{"internalType":"uint256","name":"startedDate","type":"uint256"},{"internalType":"uint256","name":"endDate","type":"uint256"},{"internalType":"uint256","name":"amount","type":"uint256"},{"internalType":"address","name":"managerAddress","type":"address"}],"stateMutability":"view","type":"function"}],"evm":{"bytecode":{"linkReferences":{},"object":"6080806040523461002057600160005560006001556107f090816100268239f35b600080fdfe608080604052600436101561001357600080fd5b6000803560e01c91826313d21cdf146100825750508063450efe211461007957806364e839e514610070578063a4063dbc146100675763f525cb681461005a575b38600080fd5b6100626103d4565b610054565b5061006261035e565b506100626101c5565b50610062610127565b346100f25760203660031901126100f2579081906100ee906001600160a01b036100aa6100f6565b16815260026020818152604092839020805460018201549382015460039092015490875291860192909252918401526001600160a01b031660608301526080820190565b0390f35b5080fd5b600435906001600160a01b038216820361010c57565b600080fd5b604435906001600160a01b038216820361010c57565b503461010c57602036600319011261010c576101416100f6565b6001600160a01b038181166000908152600260205260409020600301541633036101705761016e90610677565b005b60405162461bcd60e51b815260206004820152602760248201527f4f6e6c7920746865206d616e616765722063616e2063616c6c207468697320666044820152663ab731ba34b7b760c91b6064820152608490fd5b503461010c57606036600319011261010c576103066004356102c46024356101eb610111565b906101f4610621565b6101ff8442106103f3565b61020a81151561043f565b6102626001600160a01b03831661022281151561048a565b60405163a9059cbb60e01b81523060048201526024810184905290602090829060449082906000905af1908115610351575b600091610323575b5061052b565b61028b60026102838460018060a01b03166000526002602052604060002090565b01541561056f565b6102936105ce565b428152602081019490945260408401523360608401525b6001600160a01b0316600090815260026020526040902090565b6003908251815560208301516001820155604083015160028201550190606060018060a01b03910151166bffffffffffffffffffffffff60a01b825416179055565b610319610314600154610605565b600155565b61016e6001600055565b610344915060203d811161034a575b61033c81836104ce565b810190610506565b3861025c565b503d610332565b61035961051e565b610254565b503461010c57602036600319011261010c576001600160a01b03806103816100f6565b16600052600260205260406000206100ee815491600181015493600360028301549201541690604051948594859260609295949195608085019685526020850152604084015260018060a01b0316910152565b503461010c57600036600319011261010c576020600154604051908152f35b156103fa57565b60405162461bcd60e51b815260206004820152601e60248201527f456e642064617465206d75737420626520696e207468652066757475726500006044820152606490fd5b1561044657565b606460405162461bcd60e51b815260206004820152602060248201527f416d6f756e74206d7573742062652067726561746572207468616e207a65726f6044820152fd5b1561049157565b60405162461bcd60e51b8152602060048201526015602482015274496e76616c696420746f6b656e206164647265737360581b6044820152606490fd5b90601f8019910116810190811067ffffffffffffffff8211176104f057604052565b634e487b7160e01b600052604160045260246000fd5b9081602091031261010c5751801515810361010c5790565b506040513d6000823e3d90fd5b1561053257565b60405162461bcd60e51b8152602060048201526015602482015274151bdad95b881d1c985b9cd9995c8819985a5b1959605a1b6044820152606490fd5b1561057657565b60405162461bcd60e51b815260206004820152602a60248201527f546f6b656e7320666f72207468697320616464726573732061726520616c726560448201526918591e481b1bd8dad95960b21b6064820152608490fd5b604051906080820182811067ffffffffffffffff8211176104f057604052565b50634e487b7160e01b600052601160045260246000fd5b6001906000198114610615570190565b61061d6105ee565b0190565b600260005414610632576002600055565b60405162461bcd60e51b815260206004820152601f60248201527f5265656e7472616e637947756172643a207265656e7472616e742063616c6c006044820152606490fd5b61072161073991610686610621565b6001600160a01b03811660009081526002602052604090206106ae9060010154421015610753565b6102aa6106fd602060026106d48560018060a01b03166000526002602052604060002090565b015460405163a9059cbb60e01b8152336004820152602481019190915291829081906044820190565b038160006001600160a01b0388165af190811561035157600091610323575061052b565b60036000918281558260018201558260028201550155565b61074761031460015461079f565b6107516001600055565b565b1561075a57565b60405162461bcd60e51b815260206004820152601e60248201527f546f6b656e732063616e6e6f742062652077697468647261776e2079657400006044820152606490fd5b80156107ad575b6000190190565b6107b56105ee565b6107a656fea2646970667358221220b44650ba72e50c157ee7521b6f2d9a8b548ea2438d47ec667734e7b4fc84103364736f6c634300080d0033","opcodes":"PUSH1 0x80 DUP1 PUSH1 0x40 MSTORE CALLVALUE PUSH2 0x20 JUMPI PUSH1 0x1 PUSH1 0x0 SSTORE PUSH1 0x0 PUSH1 0x1 SSTORE PUSH2 0x7F0 SWAP1 DUP2 PUSH2 0x26 DUP3 CODECOPY RETURN JUMPDEST PUSH1 0x0 DUP1 REVERT INVALID PUSH1 0x80 DUP1 PUSH1 0x40 MSTORE PUSH1 0x4 CALLDATASIZE LT ISZERO PUSH2 0x13 JUMPI PUSH1 0x0 DUP1 REVERT JUMPDEST PUSH1 0x0 DUP1 CALLDATALOAD PUSH1 0xE0 SHR SWAP2 DUP3 PUSH4 0x13D21CDF EQ PUSH2 0x82 JUMPI POP POP DUP1 PUSH4 0x450EFE21 EQ PUSH2 0x79 JUMPI DUP1 PUSH4 0x64E839E5 EQ PUSH2 0x70 JUMPI DUP1 PUSH4 0xA4063DBC EQ PUSH2 0x67 JUMPI PUSH4 0xF525CB68 EQ PUSH2 0x5A JUMPI JUMPDEST CODESIZE PUSH1 0x0 DUP1 REVERT JUMPDEST PUSH2 0x62 PUSH2 0x3D4 JUMP JUMPDEST PUSH2 0x54 JUMP JUMPDEST POP PUSH2 0x62 PUSH2 0x35E JUMP JUMPDEST POP PUSH2 0x62 PUSH2 0x1C5 JUMP JUMPDEST POP PUSH2 0x62 PUSH2 0x127 JUMP JUMPDEST CALLVALUE PUSH2 0xF2 JUMPI PUSH1 0x20 CALLDATASIZE PUSH1 0x3 NOT ADD SLT PUSH2 0xF2 JUMPI SWAP1 DUP2 SWAP1 PUSH2 0xEE SWAP1 PUSH1 0x1 PUSH1 0x1 PUSH1 0xA0 SHL SUB PUSH2 0xAA PUSH2 0xF6 JUMP JUMPDEST AND DUP2 MSTORE PUSH1 0x2 PUSH1 0x20 DUP2 DUP2 MSTORE PUSH1 0x40 SWAP3 DUP4 SWAP1 KECCAK256 DUP1 SLOAD PUSH1 0x1 DUP3 ADD SLOAD SWAP4 DUP3 ADD SLOAD PUSH1 0x3 SWAP1 SWAP3 ADD SLOAD SWAP1 DUP8 MSTORE SWAP2 DUP7 ADD SWAP3 SWAP1 SWAP3 MSTORE SWAP2 DUP5 ADD MSTORE PUSH1 0x1 PUSH1 0x1 PUSH1 0xA0 SHL SUB AND PUSH1 0x60 DUP4 ADD MSTORE PUSH1 0x80 DUP3 ADD SWAP1 JUMP JUMPDEST SUB SWAP1 RETURN JUMPDEST POP DUP1 REVERT JUMPDEST PUSH1 0x4 CALLDATALOAD SWAP1 PUSH1 0x1 PUSH1 0x1 PUSH1 0xA0 SHL SUB DUP3 AND DUP3 SUB PUSH2 0x10C JUMPI JUMP JUMPDEST PUSH1 0x0 DUP1 REVERT JUMPDEST PUSH1 0x44 CALLDATALOAD SWAP1 PUSH1 0x1 PUSH1 0x1 PUSH1 0xA0 SHL SUB DUP3 AND DUP3 SUB PUSH2 0x10C JUMPI JUMP JUMPDEST POP CALLVALUE PUSH2 0x10C JUMPI PUSH1 0x20 CALLDATASIZE PUSH1 0x3 NOT ADD SLT PUSH2 0x10C JUMPI PUSH2 0x141 PUSH2 0xF6 JUMP JUMPDEST PUSH1 0x1 PUSH1 0x1 PUSH1 0xA0 SHL SUB DUP2 DUP2 AND PUSH1 0x0 SWAP1 DUP2 MSTORE PUSH1 0x2 PUSH1 0x20 MSTORE PUSH1 0x40 SWAP1 KECCAK256 PUSH1 0x3 ADD SLOAD AND CALLER SUB PUSH2 0x170 JUMPI PUSH2 0x16E SWAP1 PUSH2 0x677 JUMP JUMPDEST STOP JUMPDEST PUSH1 0x40 MLOAD PUSH3 0x461BCD PUSH1 0xE5 SHL DUP2 MSTORE PUSH1 0x20 PUSH1 0x4 DUP3 ADD MSTORE PUSH1 0x27 PUSH1 0x24 DUP3 ADD MSTORE PUSH32 0x4F6E6C7920746865206D616E616765722063616E2063616C6C20746869732066 PUSH1 0x44 DUP3 ADD MSTORE PUSH7 0x3AB731BA34B7B7 PUSH1 0xC9 SHL PUSH1 0x64 DUP3 ADD MSTORE PUSH1 0x84 SWAP1 REVERT JUMPDEST POP CALLVALUE PUSH2 0x10C JUMPI PUSH1 0x60 CALLDATASIZE PUSH1 0x3 NOT ADD SLT PUSH2 0x10C JUMPI PUSH2 0x306 PUSH1 0x4 CALLDATALOAD PUSH2 0x2C4 PUSH1 0x24 CALLDATALOAD PUSH2 0x1EB PUSH2 0x111 JUMP JUMPDEST SWAP1 PUSH2 0x1F4 PUSH2 0x621 JUMP JUMPDEST PUSH2 0x1FF DUP5 TIMESTAMP LT PUSH2 0x3F3 JUMP JUMPDEST PUSH2 0x20A DUP2 ISZERO ISZERO PUSH2 0x43F JUMP JUMPDEST PUSH2 0x262 PUSH1 0x1 PUSH1 0x1 PUSH1 0xA0 SHL SUB DUP4 AND PUSH2 0x222 DUP2 ISZERO ISZERO PUSH2 0x48A JUMP JUMPDEST PUSH1 0x40 MLOAD PUSH4 0xA9059CBB PUSH1 0xE0 SHL DUP2 MSTORE ADDRESS PUSH1 0x4 DUP3 ADD MSTORE PUSH1 0x24 DUP2 ADD DUP5 SWAP1 MSTORE SWAP1 PUSH1 0x20 SWAP1 DUP3 SWAP1 PUSH1 0x44 SWAP1 DUP3 SWAP1 PUSH1 0x0 SWAP1 GAS CALL SWAP1 DUP2 ISZERO PUSH2 0x351 JUMPI JUMPDEST PUSH1 0x0 SWAP2 PUSH2 0x323 JUMPI JUMPDEST POP PUSH2 0x52B JUMP JUMPDEST PUSH2 0x28B PUSH1 0x2 PUSH2 0x283 DUP5 PUSH1 0x1 DUP1 PUSH1 0xA0 SHL SUB AND PUSH1 0x0 MSTORE PUSH1 0x2 PUSH1 0x20 MSTORE PUSH1 0x40 PUSH1 0x0 KECCAK256 SWAP1 JUMP JUMPDEST ADD SLOAD ISZERO PUSH2 0x56F JUMP JUMPDEST PUSH2 0x293 PUSH2 0x5CE JUMP JUMPDEST TIMESTAMP DUP2 MSTORE PUSH1 0x20 DUP2 ADD SWAP5 SWAP1 SWAP5 MSTORE PUSH1 0x40 DUP5 ADD MSTORE CALLER PUSH1 0x60 DUP5 ADD MSTORE JUMPDEST PUSH1 0x1 PUSH1 0x1 PUSH1 0xA0 SHL SUB AND PUSH1 0x0 SWAP1 DUP2 MSTORE PUSH1 0x2 PUSH1 0x20 MSTORE PUSH1 0x40 SWAP1 KECCAK256 SWAP1 JUMP JUMPDEST PUSH1 0x3 SWAP1 DUP3 MLOAD DUP2 SSTORE PUSH1 0x20 DUP4 ADD MLOAD PUSH1 0x1 DUP3 ADD SSTORE PUSH1 0x40 DUP4 ADD MLOAD PUSH1 0x2 DUP3 ADD SSTORE ADD SWAP1 PUSH1 0x60 PUSH1 0x1 DUP1 PUSH1 0xA0 SHL SUB SWAP2 ADD MLOAD AND PUSH12 0xFFFFFFFFFFFFFFFFFFFFFFFF PUSH1 0xA0 SHL DUP3 SLOAD AND OR SWAP1 SSTORE JUMP JUMPDEST PUSH2 0x319 PUSH2 0x314 PUSH1 0x1 SLOAD PUSH2 0x605 JUMP JUMPDEST PUSH1 0x1 SSTORE JUMP JUMPDEST PUSH2 0x16E PUSH1 0x1 PUSH1 0x0 SSTORE JUMP JUMPDEST PUSH2 0x344 SWAP2 POP PUSH1 0x20 RETURNDATASIZE DUP2 GT PUSH2 0x34A JUMPI JUMPDEST PUSH2 0x33C DUP2 DUP4 PUSH2 0x4CE JUMP JUMPDEST DUP2 ADD SWAP1 PUSH2 0x506 JUMP JUMPDEST CODESIZE PUSH2 0x25C JUMP JUMPDEST POP RETURNDATASIZE PUSH2 0x332 JUMP JUMPDEST PUSH2 0x359 PUSH2 0x51E JUMP JUMPDEST PUSH2 0x254 JUMP JUMPDEST POP CALLVALUE PUSH2 0x10C JUMPI PUSH1 0x20 CALLDATASIZE PUSH1 0x3 NOT ADD SLT PUSH2 0x10C JUMPI PUSH1 0x1 PUSH1 0x1 PUSH1 0xA0 SHL SUB DUP1 PUSH2 0x381 PUSH2 0xF6 JUMP JUMPDEST AND PUSH1 0x0 MSTORE PUSH1 0x2 PUSH1 0x20 MSTORE PUSH1 0x40 PUSH1 0x0 KECCAK256 PUSH2 0xEE DUP2 SLOAD SWAP2 PUSH1 0x1 DUP2 ADD SLOAD SWAP4 PUSH1 0x3 PUSH1 0x2 DUP4 ADD SLOAD SWAP3 ADD SLOAD AND SWAP1 PUSH1 0x40 MLOAD SWAP5 DUP6 SWAP5 DUP6 SWAP3 PUSH1 0x60 SWAP3 SWAP6 SWAP5 SWAP2 SWAP6 PUSH1 0x80 DUP6 ADD SWAP7 DUP6 MSTORE PUSH1 0x20 DUP6 ADD MSTORE PUSH1 0x40 DUP5 ADD MSTORE PUSH1 0x1 DUP1 PUSH1 0xA0 SHL SUB AND SWAP2 ADD MSTORE JUMP JUMPDEST POP CALLVALUE PUSH2 0x10C JUMPI PUSH1 0x0 CALLDATASIZE PUSH1 0x3 NOT ADD SLT PUSH2 0x10C JUMPI PUSH1 0x20 PUSH1 0x1 SLOAD PUSH1 0x40 MLOAD SWAP1 DUP2 MSTORE RETURN JUMPDEST ISZERO PUSH2 0x3FA JUMPI JUMP JUMPDEST PUSH1 0x40 MLOAD PUSH3 0x461BCD PUSH1 0xE5 SHL DUP2 MSTORE PUSH1 0x20 PUSH1 0x4 DUP3 ADD MSTORE PUSH1 0x1E PUSH1 0x24 DUP3 ADD MSTORE PUSH32 0x456E642064617465206D75737420626520696E20746865206675747572650000 PUSH1 0x44 DUP3 ADD MSTORE PUSH1 0x64 SWAP1 REVERT JUMPDEST ISZERO PUSH2 0x446 JUMPI JUMP JUMPDEST PUSH1 0x64 PUSH1 0x40 MLOAD PUSH3 0x461BCD PUSH1 0xE5 SHL DUP2 MSTORE PUSH1 0x20 PUSH1 0x4 DUP3 ADD MSTORE PUSH1 0x20 PUSH1 0x24 DUP3 ADD MSTORE PUSH32 0x416D6F756E74206D7573742062652067726561746572207468616E207A65726F PUSH1 0x44 DUP3 ADD MSTORE REVERT JUMPDEST ISZERO PUSH2 0x491 JUMPI JUMP JUMPDEST PUSH1 0x40 MLOAD PUSH3 0x461BCD PUSH1 0xE5 SHL DUP2 MSTORE PUSH1 0x20 PUSH1 0x4 DUP3 ADD MSTORE PUSH1 0x15 PUSH1 0x24 DUP3 ADD MSTORE PUSH21 0x496E76616C696420746F6B656E2061646472657373 PUSH1 0x58 SHL PUSH1 0x44 DUP3 ADD MSTORE PUSH1 0x64 SWAP1 REVERT JUMPDEST SWAP1 PUSH1 0x1F DUP1 NOT SWAP2 ADD AND DUP2 ADD SWAP1 DUP2 LT PUSH8 0xFFFFFFFFFFFFFFFF DUP3 GT OR PUSH2 0x4F0 JUMPI PUSH1 0x40 MSTORE JUMP JUMPDEST PUSH4 0x4E487B71 PUSH1 0xE0 SHL PUSH1 0x0 MSTORE PUSH1 0x41 PUSH1 0x4 MSTORE PUSH1 0x24 PUSH1 0x0 REVERT JUMPDEST SWAP1 DUP2 PUSH1 0x20 SWAP2 SUB SLT PUSH2 0x10C JUMPI MLOAD DUP1 ISZERO ISZERO DUP2 SUB PUSH2 0x10C JUMPI SWAP1 JUMP JUMPDEST POP PUSH1 0x40 MLOAD RETURNDATASIZE PUSH1 0x0 DUP3 RETURNDATACOPY RETURNDATASIZE SWAP1 REVERT JUMPDEST ISZERO PUSH2 0x532 JUMPI JUMP JUMPDEST PUSH1 0x40 MLOAD PUSH3 0x461BCD PUSH1 0xE5 SHL DUP2 MSTORE PUSH1 0x20 PUSH1 0x4 DUP3 ADD MSTORE PUSH1 0x15 PUSH1 0x24 DUP3 ADD MSTORE PUSH21 0x151BDAD95B881D1C985B9CD9995C8819985A5B1959 PUSH1 0x5A SHL PUSH1 0x44 DUP3 ADD MSTORE PUSH1 0x64 SWAP1 REVERT JUMPDEST ISZERO PUSH2 0x576 JUMPI JUMP JUMPDEST PUSH1 0x40 MLOAD PUSH3 0x461BCD PUSH1 0xE5 SHL DUP2 MSTORE PUSH1 0x20 PUSH1 0x4 DUP3 ADD MSTORE PUSH1 0x2A PUSH1 0x24 DUP3 ADD MSTORE PUSH32 0x546F6B656E7320666F72207468697320616464726573732061726520616C7265 PUSH1 0x44 DUP3 ADD MSTORE PUSH10 0x18591E481B1BD8DAD959 PUSH1 0xB2 SHL PUSH1 0x64 DUP3 ADD MSTORE PUSH1 0x84 SWAP1 REVERT JUMPDEST PUSH1 0x40 MLOAD SWAP1 PUSH1 0x80 DUP3 ADD DUP3 DUP2 LT PUSH8 0xFFFFFFFFFFFFFFFF DUP3 GT OR PUSH2 0x4F0 JUMPI PUSH1 0x40 MSTORE JUMP JUMPDEST POP PUSH4 0x4E487B71 PUSH1 0xE0 SHL PUSH1 0x0 MSTORE PUSH1 0x11 PUSH1 0x4 MSTORE PUSH1 0x24 PUSH1 0x0 REVERT JUMPDEST PUSH1 0x1 SWAP1 PUSH1 0x0 NOT DUP2 EQ PUSH2 0x615 JUMPI ADD SWAP1 JUMP JUMPDEST PUSH2 0x61D PUSH2 0x5EE JUMP JUMPDEST ADD SWAP1 JUMP JUMPDEST PUSH1 0x2 PUSH1 0x0 SLOAD EQ PUSH2 0x632 JUMPI PUSH1 0x2 PUSH1 0x0 SSTORE JUMP JUMPDEST PUSH1 0x40 MLOAD PUSH3 0x461BCD PUSH1 0xE5 SHL DUP2 MSTORE PUSH1 0x20 PUSH1 0x4 DUP3 ADD MSTORE PUSH1 0x1F PUSH1 0x24 DUP3 ADD MSTORE PUSH32 0x5265656E7472616E637947756172643A207265656E7472616E742063616C6C00 PUSH1 0x44 DUP3 ADD MSTORE PUSH1 0x64 SWAP1 REVERT JUMPDEST PUSH2 0x721 PUSH2 0x739 SWAP2 PUSH2 0x686 PUSH2 0x621 JUMP JUMPDEST PUSH1 0x1 PUSH1 0x1 PUSH1 0xA0 SHL SUB DUP2 AND PUSH1 0x0 SWAP1 DUP2 MSTORE PUSH1 0x2 PUSH1 0x20 MSTORE PUSH1 0x40 SWAP1 KECCAK256 PUSH2 0x6AE SWAP1 PUSH1 0x1 ADD SLOAD TIMESTAMP LT ISZERO PUSH2 0x753 JUMP JUMPDEST PUSH2 0x2AA PUSH2 0x6FD PUSH1 0x20 PUSH1 0x2 PUSH2 0x6D4 DUP6 PUSH1 0x1 DUP1 PUSH1 0xA0 SHL SUB AND PUSH1 0x0 MSTORE PUSH1 0x2 PUSH1 0x20 MSTORE PUSH1 0x40 PUSH1 0x0 KECCAK256 SWAP1 JUMP JUMPDEST ADD SLOAD PUSH1 0x40 MLOAD PUSH4 0xA9059CBB PUSH1 0xE0 SHL DUP2 MSTORE CALLER PUSH1 0x4 DUP3 ADD MSTORE PUSH1 0x24 DUP2 ADD SWAP2 SWAP1 SWAP2 MSTORE SWAP2 DUP3 SWAP1 DUP2 SWAP1 PUSH1 0x44 DUP3 ADD SWAP1 JUMP JUMPDEST SUB DUP2 PUSH1 0x0 PUSH1 0x1 PUSH1 0x1 PUSH1 0xA0 SHL SUB DUP9 AND GAS CALL SWAP1 DUP2 ISZERO PUSH2 0x351 JUMPI PUSH1 0x0 SWAP2 PUSH2 0x323 JUMPI POP PUSH2 0x52B JUMP JUMPDEST PUSH1 0x3 PUSH1 0x0 SWAP2 DUP3 DUP2 SSTORE DUP3 PUSH1 0x1 DUP3 ADD SSTORE DUP3 PUSH1 0x2 DUP3 ADD SSTORE ADD SSTORE JUMP JUMPDEST PUSH2 0x747 PUSH2 0x314 PUSH1 0x1 SLOAD PUSH2 0x79F JUMP JUMPDEST PUSH2 0x751 PUSH1 0x1 PUSH1 0x0 SSTORE JUMP JUMPDEST JUMP JUMPDEST ISZERO PUSH2 0x75A JUMPI JUMP JUMPDEST PUSH1 0x40 MLOAD PUSH3 0x461BCD PUSH1 0xE5 SHL DUP2 MSTORE PUSH1 0x20 PUSH1 0x4 DUP3 ADD MSTORE PUSH1 0x1E PUSH1 0x24 DUP3 ADD MSTORE PUSH32 0x546F6B656E732063616E6E6F742062652077697468647261776E207965740000 PUSH1 0x44 DUP3 ADD MSTORE PUSH1 0x64 SWAP1 REVERT JUMPDEST DUP1 ISZERO PUSH2 0x7AD JUMPI JUMPDEST PUSH1 0x0 NOT ADD SWAP1 JUMP JUMPDEST PUSH2 0x7B5 PUSH2 0x5EE JUMP JUMPDEST PUSH2 0x7A6 JUMP INVALID LOG2 PUSH5 0x6970667358 0x22 SLT KECCAK256 0xB4 CHAINID POP 0xBA PUSH19 0xE50C157EE7521B6F2D9A8B548EA2438D47EC66 PUSH24 0x34E7B4FC84103364736F6C634300080D0033000000000000 "},"methodIdentifiers":{"getPoolData(address)":"13d21cdf","getTokens(address)":"450efe21","lockTokens(uint256,uint256,address)":"64e839e5","poolCount()":"f525cb68","pools(address)":"a4063dbc"}}}}}