{
  "_format": "hh-sol-artifact-1",
  "contractName": "ERC20Airdrop",
  "sourceName": "contracts/airdrop.sol",
  "abi": [
    {
      "anonymous": false,
      "inputs": [
        {
          "indexed": true,
          "internalType": "address",
          "name": "tokenAddress",
          "type": "address"
        },
        {
          "indexed": true,
          "internalType": "address",
          "name": "sender",
          "type": "address"
        },
        {
          "indexed": true,
          "internalType": "address[]",
          "name": "recipients",
          "type": "address[]"
        },
        {
          "indexed": false,
          "internalType": "uint256",
          "name": "amount",
          "type": "uint256"
        }
      ],
      "name": "AirdropCreated",
      "type": "event"
    },
    {
      "inputs": [
        {
          "internalType": "address",
          "name": "tokenAddress",
          "type": "address"
        },
        {
          "internalType": "address[]",
          "name": "recipients",
          "type": "address[]"
        },
        {
          "internalType": "uint256",
          "name": "amount",
          "type": "uint256"
        }
      ],
      "name": "createAirdrop",
      "outputs": [],
      "stateMutability": "nonpayable",
      "type": "function"
    },
    {
      "inputs": [
        {
          "internalType": "address",
          "name": "tokenAddress",
          "type": "address"
        }
      ],
      "name": "withdraw",
      "outputs": [],
      "stateMutability": "nonpayable",
      "type": "function"
    }
  ],
  "bytecode": "0x6080806040523461001657610612908161001c8239f35b600080fdfe60806040526004361015610013575b600080fd5b6000803560e01c9081633ddd92d01461003e57506351cff8d91461003657600080fd5b61000e61016d565b346100fa5760603660031901126100fa576100576100fd565b67ffffffffffffffff91906024358381116100f657366023820112156100f65780600401359384116100e9575b8360051b906040519160209561009c8783018561013e565b8352602486840191830101913683116100e557602401905b8282106100ce57856100c960443586886103f0565b604051f35b8680916100da84610113565b8152019101906100b4565b8580fd5b6100f1610127565b610084565b8280fd5b80fd5b600435906001600160a01b038216820361000e57565b35906001600160a01b038216820361000e57565b50634e487b7160e01b600052604160045260246000fd5b90601f8019910116810190811067ffffffffffffffff82111761016057604052565b610168610127565b604052565b503461000e5760208060031936011261000e576000816101ee6001600160a01b036101966100fd565b6040516370a0823160e01b81523060048201529116908381602481855afa908115610261575b8591610234575b5060405163a9059cbb60e01b8152336004820152602481019190915293849283919082906044820190565b03925af18015610227575b6101ff57005b8161021e92903d10610220575b610216818361013e565b81019061030b565b005b503d61020c565b61022f6102b3565b6101f9565b6102549150843d861161025a575b61024c818361013e565b8101906102a4565b386101c3565b503d610242565b6102696102b3565b6101bc565b50634e487b7160e01b600052601160045260246000fd5b8060001904821181151516610298570290565b6102a061026e565b0290565b9081602091031261000e575190565b506040513d6000823e3d90fd5b156102c757565b606460405162461bcd60e51b815260206004820152602060248201527f496e73756666696369656e742062616c616e636520666f722061697264726f706044820152fd5b9081602091031261000e5751801515810361000e5790565b6001906000198114610333570190565b61033b61026e565b0190565b80518210156103535760209160051b010190565b634e487b7160e01b600052603260045260246000fd5b1561037057565b60405162461bcd60e51b8152602060048201526015602482015274151bdad95b881d1c985b9cd9995c8819985a5b1959605a1b6044820152606490fd5b60405190818183925160208092019160005b8281106103d0575050505003902090565b83516001600160a01b0316855286955093810193928101926001016103bf565b9291909260018060a01b0316610407828551610285565b604080516370a0823160e01b815233600480830191909152602097929390929161047b91899161045390829084816024818d5afa9081156105cf575b6000916105b2575b5010156102c0565b855163095ea7b360e01b81523086820190815260208101929092529283918291604090910190565b03816000895af180156105a5575b610588575b5060005b815181101561054b57806105176104fa8a896104c16104b461051c978961033f565b516001600160a01b031690565b89516323b872dd60e01b8152338a82019081526001600160a01b0390921660208301526040820192909252909283918291606090910190565b038160008c5af190811561053e575b600091610521575b50610369565b610323565b610492565b61053891508b3d8d1161022057610216818361013e565b38610511565b6105466102b3565b610509565b507f5aca639021ac708a0e24a618ec97ce2db15cb8b1f3e29067be73a49f5f3a2f3b9295965061057b91506103ad565b93519283523392602090a4565b61059e90883d8a1161022057610216818361013e565b503861048e565b6105ad6102b3565b610489565b6105c99150853d871161025a5761024c818361013e565b3861044b565b6105d76102b3565b61044356fea2646970667358221220333e7442a9a21dd12bacb218ea04df56fafe9b4e55128111d6664f8bec94257364736f6c634300080d0033",
  "linkReferences": {},
  "deployedLinkReferences": {}
}