{
  "_format": "hh-sol-artifact-1",
  "contractName": "LiquidityLock",
  "sourceName": "contracts/lock.sol",
  "abi": [
    {
      "inputs": [
        {
          "internalType": "address",
          "name": "_tokenAddress",
          "type": "address"
        }
      ],
      "name": "getPoolData",
      "outputs": [
        {
          "internalType": "uint256",
          "name": "startedDate",
          "type": "uint256"
        },
        {
          "internalType": "uint256",
          "name": "endDate",
          "type": "uint256"
        },
        {
          "internalType": "uint256",
          "name": "amount",
          "type": "uint256"
        },
        {
          "internalType": "address",
          "name": "managerAddress",
          "type": "address"
        }
      ],
      "stateMutability": "view",
      "type": "function"
    },
    {
      "inputs": [
        {
          "internalType": "address",
          "name": "_tokenAddress",
          "type": "address"
        }
      ],
      "name": "getTokens",
      "outputs": [],
      "stateMutability": "nonpayable",
      "type": "function"
    },
    {
      "inputs": [
        {
          "internalType": "uint256",
          "name": "_endDate",
          "type": "uint256"
        },
        {
          "internalType": "uint256",
          "name": "_amount",
          "type": "uint256"
        },
        {
          "internalType": "address",
          "name": "_tokenAddress",
          "type": "address"
        }
      ],
      "name": "lockTokens",
      "outputs": [],
      "stateMutability": "nonpayable",
      "type": "function"
    },
    {
      "inputs": [],
      "name": "poolCount",
      "outputs": [
        {
          "internalType": "uint256",
          "name": "",
          "type": "uint256"
        }
      ],
      "stateMutability": "view",
      "type": "function"
    },
    {
      "inputs": [
        {
          "internalType": "address",
          "name": "",
          "type": "address"
        }
      ],
      "name": "pools",
      "outputs": [
        {
          "internalType": "uint256",
          "name": "startedDate",
          "type": "uint256"
        },
        {
          "internalType": "uint256",
          "name": "endDate",
          "type": "uint256"
        },
        {
          "internalType": "uint256",
          "name": "amount",
          "type": "uint256"
        },
        {
          "internalType": "address",
          "name": "managerAddress",
          "type": "address"
        }
      ],
      "stateMutability": "view",
      "type": "function"
    }
  ],
  "bytecode": "0x6080806040523461002057600160005560006001556107f090816100268239f35b600080fdfe608080604052600436101561001357600080fd5b6000803560e01c91826313d21cdf146100825750508063450efe211461007957806364e839e514610070578063a4063dbc146100675763f525cb681461005a575b38600080fd5b6100626103d4565b610054565b5061006261035e565b506100626101c5565b50610062610127565b346100f25760203660031901126100f2579081906100ee906001600160a01b036100aa6100f6565b16815260026020818152604092839020805460018201549382015460039092015490875291860192909252918401526001600160a01b031660608301526080820190565b0390f35b5080fd5b600435906001600160a01b038216820361010c57565b600080fd5b604435906001600160a01b038216820361010c57565b503461010c57602036600319011261010c576101416100f6565b6001600160a01b038181166000908152600260205260409020600301541633036101705761016e90610677565b005b60405162461bcd60e51b815260206004820152602760248201527f4f6e6c7920746865206d616e616765722063616e2063616c6c207468697320666044820152663ab731ba34b7b760c91b6064820152608490fd5b503461010c57606036600319011261010c576103066004356102c46024356101eb610111565b906101f4610621565b6101ff8442106103f3565b61020a81151561043f565b6102626001600160a01b03831661022281151561048a565b60405163a9059cbb60e01b81523060048201526024810184905290602090829060449082906000905af1908115610351575b600091610323575b5061052b565b61028b60026102838460018060a01b03166000526002602052604060002090565b01541561056f565b6102936105ce565b428152602081019490945260408401523360608401525b6001600160a01b0316600090815260026020526040902090565b6003908251815560208301516001820155604083015160028201550190606060018060a01b03910151166bffffffffffffffffffffffff60a01b825416179055565b610319610314600154610605565b600155565b61016e6001600055565b610344915060203d811161034a575b61033c81836104ce565b810190610506565b3861025c565b503d610332565b61035961051e565b610254565b503461010c57602036600319011261010c576001600160a01b03806103816100f6565b16600052600260205260406000206100ee815491600181015493600360028301549201541690604051948594859260609295949195608085019685526020850152604084015260018060a01b0316910152565b503461010c57600036600319011261010c576020600154604051908152f35b156103fa57565b60405162461bcd60e51b815260206004820152601e60248201527f456e642064617465206d75737420626520696e207468652066757475726500006044820152606490fd5b1561044657565b606460405162461bcd60e51b815260206004820152602060248201527f416d6f756e74206d7573742062652067726561746572207468616e207a65726f6044820152fd5b1561049157565b60405162461bcd60e51b8152602060048201526015602482015274496e76616c696420746f6b656e206164647265737360581b6044820152606490fd5b90601f8019910116810190811067ffffffffffffffff8211176104f057604052565b634e487b7160e01b600052604160045260246000fd5b9081602091031261010c5751801515810361010c5790565b506040513d6000823e3d90fd5b1561053257565b60405162461bcd60e51b8152602060048201526015602482015274151bdad95b881d1c985b9cd9995c8819985a5b1959605a1b6044820152606490fd5b1561057657565b60405162461bcd60e51b815260206004820152602a60248201527f546f6b656e7320666f72207468697320616464726573732061726520616c726560448201526918591e481b1bd8dad95960b21b6064820152608490fd5b604051906080820182811067ffffffffffffffff8211176104f057604052565b50634e487b7160e01b600052601160045260246000fd5b6001906000198114610615570190565b61061d6105ee565b0190565b600260005414610632576002600055565b60405162461bcd60e51b815260206004820152601f60248201527f5265656e7472616e637947756172643a207265656e7472616e742063616c6c006044820152606490fd5b61072161073991610686610621565b6001600160a01b03811660009081526002602052604090206106ae9060010154421015610753565b6102aa6106fd602060026106d48560018060a01b03166000526002602052604060002090565b015460405163a9059cbb60e01b8152336004820152602481019190915291829081906044820190565b038160006001600160a01b0388165af190811561035157600091610323575061052b565b60036000918281558260018201558260028201550155565b61074761031460015461079f565b6107516001600055565b565b1561075a57565b60405162461bcd60e51b815260206004820152601e60248201527f546f6b656e732063616e6e6f742062652077697468647261776e2079657400006044820152606490fd5b80156107ad575b6000190190565b6107b56105ee565b6107a656fea2646970667358221220b44650ba72e50c157ee7521b6f2d9a8b548ea2438d47ec667734e7b4fc84103364736f6c634300080d0033",
  "linkReferences": {},
  "deployedLinkReferences": {}
}