{
  "_format": "hh-sol-artifact-1",
  "contractName": "PresaleContract",
  "sourceName": "contracts/presale.sol",
  "abi": [
    {
      "anonymous": false,
      "inputs": [
        {
          "indexed": true,
          "internalType": "uint256",
          "name": "_tokenAddress",
          "type": "uint256"
        },
        {
          "indexed": false,
          "internalType": "uint256",
          "name": "_totalTokens",
          "type": "uint256"
        },
        {
          "indexed": false,
          "internalType": "uint256",
          "name": "_startTime",
          "type": "uint256"
        },
        {
          "indexed": false,
          "internalType": "uint256",
          "name": "_endTime",
          "type": "uint256"
        },
        {
          "indexed": false,
          "internalType": "uint256",
          "name": "_softcap",
          "type": "uint256"
        },
        {
          "indexed": false,
          "internalType": "uint256",
          "name": "_hardcap",
          "type": "uint256"
        }
      ],
      "name": "PresaleCreated",
      "type": "event"
    },
    {
      "inputs": [
        {
          "internalType": "address",
          "name": "_tokenAddress",
          "type": "address"
        },
        {
          "internalType": "uint256",
          "name": "_presalePrice",
          "type": "uint256"
        },
        {
          "internalType": "uint256",
          "name": "_listingPrice",
          "type": "uint256"
        },
        {
          "internalType": "uint256",
          "name": "_softcap",
          "type": "uint256"
        },
        {
          "internalType": "uint256",
          "name": "_hardcap",
          "type": "uint256"
        },
        {
          "internalType": "uint256",
          "name": "_minContribution",
          "type": "uint256"
        },
        {
          "internalType": "uint256",
          "name": "_maxContribution",
          "type": "uint256"
        },
        {
          "internalType": "uint256",
          "name": "_startTime",
          "type": "uint256"
        },
        {
          "internalType": "uint256",
          "name": "_endTime",
          "type": "uint256"
        },
        {
          "internalType": "uint256",
          "name": "_tokensToSell",
          "type": "uint256"
        },
        {
          "internalType": "uint8",
          "name": "_liquidityPercentage",
          "type": "uint8"
        },
        {
          "internalType": "bool",
          "name": "_haveWhitelistedUsers",
          "type": "bool"
        },
        {
          "internalType": "address[]",
          "name": "_whitelistedUsers",
          "type": "address[]"
        },
        {
          "internalType": "uint256",
          "name": "_liquidityUnlockTime",
          "type": "uint256"
        }
      ],
      "name": "createPresale",
      "outputs": [],
      "stateMutability": "nonpayable",
      "type": "function"
    },
    {
      "inputs": [
        {
          "internalType": "address",
          "name": "_tokenAddress",
          "type": "address"
        }
      ],
      "name": "getInvestment",
      "outputs": [
        {
          "internalType": "uint256",
          "name": "",
          "type": "uint256"
        }
      ],
      "stateMutability": "view",
      "type": "function"
    },
    {
      "inputs": [],
      "name": "getPresalesByOwner",
      "outputs": [
        {
          "internalType": "address[]",
          "name": "",
          "type": "address[]"
        }
      ],
      "stateMutability": "view",
      "type": "function"
    },
    {
      "inputs": [
        {
          "internalType": "address",
          "name": "",
          "type": "address"
        }
      ],
      "name": "presales",
      "outputs": [
        {
          "internalType": "address",
          "name": "owner",
          "type": "address"
        },
        {
          "internalType": "uint256",
          "name": "presalePrice",
          "type": "uint256"
        },
        {
          "internalType": "uint256",
          "name": "listingPrice",
          "type": "uint256"
        },
        {
          "internalType": "uint256",
          "name": "softcap",
          "type": "uint256"
        },
        {
          "internalType": "uint256",
          "name": "hardcap",
          "type": "uint256"
        },
        {
          "internalType": "uint256",
          "name": "minContribution",
          "type": "uint256"
        },
        {
          "internalType": "uint256",
          "name": "maxContribution",
          "type": "uint256"
        },
        {
          "internalType": "uint256",
          "name": "startTime",
          "type": "uint256"
        },
        {
          "internalType": "uint256",
          "name": "endTime",
          "type": "uint256"
        },
        {
          "internalType": "uint256",
          "name": "tokensToSell",
          "type": "uint256"
        },
        {
          "internalType": "uint8",
          "name": "liquidityPercentage",
          "type": "uint8"
        },
        {
          "internalType": "uint256",
          "name": "liquidityUnlockTime",
          "type": "uint256"
        },
        {
          "internalType": "bool",
          "name": "haveWhitelistedUsers",
          "type": "bool"
        },
        {
          "internalType": "uint256",
          "name": "totalInvestment",
          "type": "uint256"
        }
      ],
      "stateMutability": "view",
      "type": "function"
    }
  ],
  "bytecode": "0x608080604052346100165761092d908161001c8239f35b600080fdfe608080604052600436101561001357600080fd5b6000803560e01c918263146b58df1461006e57505080634512137d14610065578063af8b95921461005c5763efcd708f1461004f575b38600080fd5b610057610392565b610049565b5061005761029b565b506100576101d2565b346100a65760203660031901126100a657602091600d906040906001600160a01b036100986100aa565b168152600285522001548152f35b5080fd5b600435906001600160a01b03821682036100c057565b600080fd5b610144359060ff821682036100c057565b610164359081151582036100c057565b50634e487b7160e01b600052604160045260246000fd5b90601f8019910116810190811067ffffffffffffffff82111761011f57604052565b6101276100e6565b604052565b604051906101c0820182811067ffffffffffffffff82111761011f57604052565b9080601f830112156100c05781359067ffffffffffffffff82116101c5575b8160051b60405193602093610183858401876100fd565b855283808601928201019283116100c0578301905b8282106101a6575050505090565b81356001600160a01b03811681036100c0578152908301908301610198565b6101cd6100e6565b61016c565b50346100c0576101c03660031901126100c0576101ed6100aa565b6101f56100c5565b906101fe6100d6565b91610184359267ffffffffffffffff84116100c05761022461025594369060040161014d565b916101a435936101243590610104359060e4359060c4359060a4359060843590606435906044359060243590610778565b005b6020908160408183019282815285518094520193019160005b82811061027e575050505090565b83516001600160a01b031685529381019392810192600101610270565b50346100c0576000806003193601126103195733815260206003815260408220916040518092808554928381520194835280832092905b8282106102f9576102f5856102e9818903826100fd565b60405191829182610257565b0390f35b83546001600160a01b0316865294850194600193840193909101906102d2565b80fd5b9b99979593919e9d9c9a98969492909e6101c08d019f600160a01b60019003168d5260208d015260408c015260608b015260808a015260a089015260c088015260e087015261010086015261012085015260ff16610140840152610160830152610180820161038b9115159052565b6101a00152565b50346100c05760203660031901126100c0576001600160a01b036103b46100aa565b16600090815260026020526040902080546001600160a01b03166102f560018301549260028101549060038101546004820154600583015460068401546007850154600886015491600987015493610410600a89015460ff1690565b95600b89015497600d610427600c8c015460ff1690565b9a01549a6040519e8f9e8f61031c565b1561043e57565b60405162461bcd60e51b815260206004820152602560248201527f50726573616c653a2053746172742074696d65206d75737420626520696e2066604482015264757475726560d81b6064820152608490fd5b1561049857565b60405162461bcd60e51b815260206004820152602a60248201527f50726573616c653a20456e642074696d65206d7573742062652061667465722060448201526973746172742074696d6560b01b6064820152608490fd5b156104f757565b60405162461bcd60e51b815260206004820152602d60248201527f50726573616c653a2048617264636170206d757374206265206772656174657260448201526c0207468616e20736f667463617609c1b6064820152608490fd5b1561055957565b60405162461bcd60e51b815260206004820152603060248201527f50726573616c653a204d617820636f6e747269627574696f6e206d757374206260448201526f0652067726561746572207468616e20360841b6064820152608490fd5b156105be57565b60405162461bcd60e51b815260206004820152603060248201527f50726573616c653a204d696e20636f6e747269627574696f6e206d757374206260448201526f0652067726561746572207468616e20360841b6064820152608490fd5b815181546001600160a01b0319166001600160a01b0390911617815590600d906101a0906020810151600185015560408101516002850155606081015160038501556080810151600485015560a0810151600585015560c0810151600685015560e08101516007850155610100810151600885015561012081015160098501556106c16106ae61014083015160ff1690565b600a86019060ff1660ff19825416179055565b610160810151600b8501556106f26106dd610180830151151590565b600c86019060ff801983541691151516179055565b0151910155565b50634e487b7160e01b600052603260045260246000fd5b8054906801000000000000000082101561076b575b6001820180825582101561075e575b6000526020600020019060018060a01b03166bffffffffffffffffffffffff60a01b825416179055565b6107666106f9565b610734565b6107736100e6565b610725565b9b9a999461083f999461080c979299946108599f999461079a42871015610437565b6107a5868811610491565b6107b08284116104f0565b6107bb851515610552565b6107c68415156105b7565b6107ce61012c565b3381529b60208d015260408c015260608b015260808a015260a089015260c088015260e087015261010086015261012085015260ff16610140840152565b61016082015282151561018082015260006101a082018190526001600160a01b038616815260026020526040902061061c565b61085b575b50336000908152600360205260409020610710565b565b610865908261086b565b38610844565b60005b82518110156108f2576108be60018060a01b0380841660005260209060008252604091826000209187518610156108e5575b818660051b890101511660005252600020600160ff19825416179055565b60001981146108cf5760010161086e565b634e487b7160e01b600052601160045260246000fd5b6108ed6106f9565b6108a0565b50505056fea26469706673582212204123e745cb16a4bc9bcb7df0b4e8616ecefc5f81a514d70de67f7e819bf4e2bb64736f6c634300080d0033",
  "linkReferences": {},
  "deployedLinkReferences": {}
}